{
  "_format": "hh-sol-artifact-1",
  "contractName": "HBARAndFTPaymentContract",
  "sourceName": "contracts/modules/HBARAndFTPaymentContract.sol",
  "abi": [
    {
      "inputs": [],
      "name": "getEnablePayment",
      "outputs": [
        {
          "internalType": "bool",
          "name": "",
          "type": "bool"
        }
      ],
      "stateMutability": "view",
      "type": "function"
    },
    {
      "inputs": [],
      "name": "getTokenPaymentAddresses",
      "outputs": [
        {
          "internalType": "contract IERC20[]",
          "name": "",
          "type": "address[]"
        }
      ],
      "stateMutability": "view",
      "type": "function"
    },
    {
      "inputs": [
        {
          "internalType": "address",
          "name": "tokenAddress",
          "type": "address"
        }
      ],
      "name": "getTokenPaymentAmount",
      "outputs": [
        {
          "internalType": "uint256",
          "name": "",
          "type": "uint256"
        }
      ],
      "stateMutability": "view",
      "type": "function"
    },
    {
      "inputs": [
        {
          "components": [
            {
              "internalType": "bytes32[]",
              "name": "merkleProof",
              "type": "bytes32[]"
            },
            {
              "internalType": "contract IERC20",
              "name": "paymentToken",
              "type": "address"
            }
          ],
          "internalType": "struct GetNFTParams",
          "name": "params",
          "type": "tuple"
        }
      ],
      "name": "pay",
      "outputs": [
        {
          "internalType": "bool",
          "name": "result",
          "type": "bool"
        }
      ],
      "stateMutability": "payable",
      "type": "function"
    },
    {
      "inputs": [
        {
          "internalType": "bool",
          "name": "enablePayment",
          "type": "bool"
        }
      ],
      "name": "setEnablePayment",
      "outputs": [],
      "stateMutability": "nonpayable",
      "type": "function"
    },
    {
      "inputs": [
        {
          "internalType": "address",
          "name": "tokenAddress",
          "type": "address"
        },
        {
          "internalType": "uint256",
          "name": "amount",
          "type": "uint256"
        }
      ],
      "name": "setTokenPaymentAmount",
      "outputs": [],
      "stateMutability": "nonpayable",
      "type": "function"
    }
  ],
  "bytecode": "0x608060405234801561001057600080fd5b50610853806100206000396000f3fe6080604052600436106100655760003560e01c8063808598bf11610043578063808598bf14610107578063842717e51461011a5780639967cbd21461013c57600080fd5b806308f527ef1461006a57806319ffb7ab146100935780634cbace0c146100c3575b600080fd5b34801561007657600080fd5b5060115460ff165b60405190151581526020015b60405180910390f35b34801561009f57600080fd5b506100c16100ae366004610559565b6011805460ff1916911515919091179055565b005b3480156100cf57600080fd5b506100f96100de366004610592565b6001600160a01b031660009081526004602052604090205490565b60405190815260200161008a565b61007e61011536600461062f565b61015c565b34801561012657600080fd5b5061012f61018c565b60405161008a9190610713565b34801561014857600080fd5b506100c1610157366004610760565b6101f1565b60208101516000906001600160a01b031661017f57610179610229565b92915050565b61017982602001516102f8565b606060006007018054806020026020016040519081016040528092919081815260200182805480156101e757602002820191906000526020600020905b81546001600160a01b031681526001909101906020018083116101c9575b5050505050905090565b80610204576101ff826103b3565b61020d565b61020d82610475565b6001600160a01b03909116600090815260046020526040902055565b600080805260046020527f17ef568e3e12ab5b9c7254a8d58478811de00f9e6eb34345acd53bf8fd09d3ec543410156102625750600090565b600080805260046020527f17ef568e3e12ab5b9c7254a8d58478811de00f9e6eb34345acd53bf8fd09d3ec5461029890346107a2565b905080156102f4576040516000908190339084908381818185875af1925050503d80600081146102e4576040519150601f19603f3d011682016040523d82523d6000602084013e6102e9565b606091505b509095945050505050565b5090565b6001600160a01b03811660009081526004602052604081205461031d57506000919050565b6001600160a01b03821660008181526004602081815260408084205481516323b872dd60e01b815233948101949094523060248501526044840152516323b872dd936064808501948390030190829087803b15801561037b57600080fd5b505af115801561038f573d6000803e3d6000fd5b505050506040513d601f19601f8201168201806040525081019061017991906107b9565b60006103be826104dd565b90506000811261047157600780546103d8906001906107a2565b815481106103e8576103e86107d6565b600091825260209091200154600780546001600160a01b039092169183908110610414576104146107d6565b600091825260209091200180546001600160a01b0319166001600160a01b0392909216919091179055600780548061044e5761044e6107ec565b600082815260209020810160001990810180546001600160a01b03191690550190555b5050565b6000610480826104dd565b905080600019141561047157600780546001810182556000919091527fa66cc928b5edb82af9bd49922954155ab7b0942694bea4ce44661d9a8736c6880180546001600160a01b0384166001600160a01b03199091161790555050565b6000805b60075481101561053e57826001600160a01b03166000600701828154811061050b5761050b6107d6565b6000918252602090912001546001600160a01b0316141561052c5792915050565b8061053681610802565b9150506104e1565b5060001992915050565b801515811461055657600080fd5b50565b60006020828403121561056b57600080fd5b813561057681610548565b9392505050565b6001600160a01b038116811461055657600080fd5b6000602082840312156105a457600080fd5b81356105768161057d565b634e487b7160e01b600052604160045260246000fd5b6040805190810167ffffffffffffffff811182821017156105e8576105e86105af565b60405290565b604051601f8201601f1916810167ffffffffffffffff81118282101715610617576106176105af565b604052919050565b803561062a8161057d565b919050565b6000602080838503121561064257600080fd5b823567ffffffffffffffff8082111561065a57600080fd5b908401906040828703121561066e57600080fd5b6106766105c5565b82358281111561068557600080fd5b8301601f8101881361069657600080fd5b8035838111156106a8576106a86105af565b8060051b93506106b98685016105ee565b818152938201860193868101908a8611156106d357600080fd5b928701925b858410156106f1578335825292870192908701906106d8565b84525061070291505083850161061f565b848201528094505050505092915050565b6020808252825182820181905260009190848201906040850190845b818110156107545783516001600160a01b03168352928401929184019160010161072f565b50909695505050505050565b6000806040838503121561077357600080fd5b823561077e8161057d565b946020939093013593505050565b634e487b7160e01b600052601160045260246000fd5b6000828210156107b4576107b461078c565b500390565b6000602082840312156107cb57600080fd5b815161057681610548565b634e487b7160e01b600052603260045260246000fd5b634e487b7160e01b600052603160045260246000fd5b60006000198214156108165761081661078c565b506001019056fea2646970667358221220ee9b0957f521b35fd69628f0856b2850208ae7cc215c81ed482d38b9716443ad64736f6c63430008090033",
  "linkReferences": {},
  "deployedLinkReferences": {}
}