{
  "_format": "hh-sol-artifact-1",
  "contractName": "DefaultSerialNumberGeneratorContract",
  "sourceName": "contracts/modules/DefaultSerialNumberGeneratorContract.sol",
  "abi": [
    {
      "inputs": [],
      "name": "generateSerialNumber",
      "outputs": [
        {
          "internalType": "int64",
          "name": "serialNumber",
          "type": "int64"
        }
      ],
      "stateMutability": "payable",
      "type": "function"
    },
    {
      "inputs": [],
      "name": "getLastMintedSerialNumber",
      "outputs": [
        {
          "internalType": "int64",
          "name": "serialNumber",
          "type": "int64"
        }
      ],
      "stateMutability": "view",
      "type": "function"
    },
    {
      "inputs": [
        {
          "internalType": "int64",
          "name": "serialNumber",
          "type": "int64"
        }
      ],
      "name": "hookAfterDistributed",
      "outputs": [],
      "stateMutability": "payable",
      "type": "function"
    }
  ],
  "bytecode": "0x608060405234801561001057600080fd5b5061025c806100206000396000f3fe6080604052600436106100345760003560e01c80633a3aeb6a1461003957806365930fb714610064578063a234fbfa1461006c575b600080fd5b34801561004557600080fd5b5060065460070b5b60405160079190910b815260200160405180910390f35b61004d610081565b61007f61007a36600461016e565b61012e565b005b600c5460065460009169010000000000000000009004600790810b916100a9910b60016101ae565b60070b13156100fe5760405162461bcd60e51b815260206004820152600f60248201527f446973747269627574656420616c6c0000000000000000000000000000000000604482015260640160405180910390fd5b60065460070b1561011f5760065461011a9060070b60016101ae565b905090565b50600c54610100900460070b90565b6006805460070b906000610141836101ff565b91906101000a81548167ffffffffffffffff021916908360070b67ffffffffffffffff1602179055505050565b60006020828403121561018057600080fd5b81358060070b811461019157600080fd5b9392505050565b634e487b7160e01b600052601160045260246000fd5b60008160070b8360070b6000821282677fffffffffffffff038213811516156101d9576101d9610198565b82677fffffffffffffff190382128116156101f6576101f6610198565b50019392505050565b60008160070b677fffffffffffffff81141561021d5761021d610198565b6001019291505056fea26469706673582212205f45c2399c406e6108aa9ad01e033a7837b4aee475e9aa54ba97a2a3b9f82f9c64736f6c63430008090033",
  "linkReferences": {},
  "deployedLinkReferences": {}
}