{
  "_format": "hh-sol-artifact-1",
  "contractName": "DistributionContract",
  "sourceName": "contracts/DistributionContract.sol",
  "abi": [
    {
      "inputs": [],
      "stateMutability": "nonpayable",
      "type": "constructor"
    },
    {
      "anonymous": false,
      "inputs": [
        {
          "indexed": false,
          "internalType": "bool",
          "name": "",
          "type": "bool"
        },
        {
          "indexed": false,
          "internalType": "bytes",
          "name": "",
          "type": "bytes"
        }
      ],
      "name": "CallResponseEvent",
      "type": "event"
    },
    {
      "anonymous": false,
      "inputs": [
        {
          "indexed": false,
          "internalType": "int256",
          "name": "responseCode",
          "type": "int256"
        }
      ],
      "name": "ResponseCode",
      "type": "event"
    },
    {
      "stateMutability": "payable",
      "type": "fallback"
    },
    {
      "inputs": [],
      "name": "claim",
      "outputs": [],
      "stateMutability": "nonpayable",
      "type": "function"
    },
    {
      "inputs": [
        {
          "internalType": "bytes4",
          "name": "selector",
          "type": "bytes4"
        },
        {
          "internalType": "address",
          "name": "impl",
          "type": "address"
        }
      ],
      "name": "extend",
      "outputs": [],
      "stateMutability": "nonpayable",
      "type": "function"
    },
    {
      "inputs": [
        {
          "internalType": "address",
          "name": "extensionAddress",
          "type": "address"
        }
      ],
      "name": "getContractExtensionName",
      "outputs": [
        {
          "internalType": "string",
          "name": "",
          "type": "string"
        }
      ],
      "stateMutability": "view",
      "type": "function"
    },
    {
      "inputs": [],
      "name": "getExtensions",
      "outputs": [
        {
          "internalType": "address[]",
          "name": "",
          "type": "address[]"
        }
      ],
      "stateMutability": "view",
      "type": "function"
    },
    {
      "inputs": [
        {
          "internalType": "bytes4",
          "name": "selector",
          "type": "bytes4"
        }
      ],
      "name": "getFunctionImplementation",
      "outputs": [
        {
          "internalType": "address",
          "name": "impl",
          "type": "address"
        }
      ],
      "stateMutability": "view",
      "type": "function"
    },
    {
      "inputs": [
        {
          "components": [
            {
              "internalType": "bytes32[]",
              "name": "merkleProof",
              "type": "bytes32[]"
            },
            {
              "internalType": "contract IERC20",
              "name": "paymentToken",
              "type": "address"
            }
          ],
          "internalType": "struct GetNFTParams",
          "name": "params",
          "type": "tuple"
        }
      ],
      "name": "getNFT",
      "outputs": [],
      "stateMutability": "payable",
      "type": "function"
    },
    {
      "inputs": [],
      "name": "getSAllowListURL",
      "outputs": [
        {
          "internalType": "string",
          "name": "",
          "type": "string"
        }
      ],
      "stateMutability": "view",
      "type": "function"
    },
    {
      "inputs": [],
      "name": "getSClaimingPreviewImageURL",
      "outputs": [
        {
          "internalType": "string",
          "name": "",
          "type": "string"
        }
      ],
      "stateMutability": "view",
      "type": "function"
    },
    {
      "inputs": [],
      "name": "getSEndSerialNumber",
      "outputs": [
        {
          "internalType": "int64",
          "name": "",
          "type": "int64"
        }
      ],
      "stateMutability": "view",
      "type": "function"
    },
    {
      "inputs": [],
      "name": "getSFirstClaimed",
      "outputs": [
        {
          "internalType": "bool",
          "name": "",
          "type": "bool"
        }
      ],
      "stateMutability": "view",
      "type": "function"
    },
    {
      "inputs": [],
      "name": "getSLeftToDistribute",
      "outputs": [
        {
          "internalType": "uint256",
          "name": "",
          "type": "uint256"
        }
      ],
      "stateMutability": "view",
      "type": "function"
    },
    {
      "inputs": [],
      "name": "getSNFTSDistributed",
      "outputs": [
        {
          "internalType": "uint256",
          "name": "",
          "type": "uint256"
        }
      ],
      "stateMutability": "view",
      "type": "function"
    },
    {
      "inputs": [],
      "name": "getSNFTToDistributeAddress",
      "outputs": [
        {
          "internalType": "address",
          "name": "",
          "type": "address"
        }
      ],
      "stateMutability": "view",
      "type": "function"
    },
    {
      "inputs": [],
      "name": "getSNFTTreasury",
      "outputs": [
        {
          "internalType": "address",
          "name": "",
          "type": "address"
        }
      ],
      "stateMutability": "view",
      "type": "function"
    },
    {
      "inputs": [],
      "name": "getSOwner",
      "outputs": [
        {
          "internalType": "address",
          "name": "",
          "type": "address"
        }
      ],
      "stateMutability": "view",
      "type": "function"
    },
    {
      "inputs": [],
      "name": "getSRevenueAccount",
      "outputs": [
        {
          "internalType": "address",
          "name": "",
          "type": "address"
        }
      ],
      "stateMutability": "view",
      "type": "function"
    },
    {
      "inputs": [],
      "name": "getSStartSerialNumber",
      "outputs": [
        {
          "internalType": "int64",
          "name": "",
          "type": "int64"
        }
      ],
      "stateMutability": "view",
      "type": "function"
    },
    {
      "inputs": [
        {
          "components": [
            {
              "internalType": "address",
              "name": "owner",
              "type": "address"
            },
            {
              "internalType": "address",
              "name": "revenueAccount",
              "type": "address"
            },
            {
              "internalType": "address",
              "name": "nftTreasury",
              "type": "address"
            },
            {
              "internalType": "string",
              "name": "claimingPreviewImageURL",
              "type": "string"
            },
            {
              "internalType": "string",
              "name": "allowListURL",
              "type": "string"
            },
            {
              "internalType": "bool",
              "name": "shouldUseTransferFrom",
              "type": "bool"
            },
            {
              "internalType": "int64",
              "name": "startSerialNumber",
              "type": "int64"
            },
            {
              "internalType": "int64",
              "name": "endSerialNumber",
              "type": "int64"
            },
            {
              "internalType": "address",
              "name": "serialNumberGenerator",
              "type": "address"
            },
            {
              "internalType": "contract IERC721Enumerable",
              "name": "nftToDistribute",
              "type": "address"
            },
            {
              "internalType": "bytes32",
              "name": "allowListMerkleRoot",
              "type": "bytes32"
            },
            {
              "internalType": "address[]",
              "name": "validationGates",
              "type": "address[]"
            },
            {
              "internalType": "bool",
              "name": "enablePayment",
              "type": "bool"
            },
            {
              "internalType": "address",
              "name": "paymentModule",
              "type": "address"
            },
            {
              "internalType": "uint256",
              "name": "startTimestamp",
              "type": "uint256"
            },
            {
              "internalType": "uint256",
              "name": "endTimestamp",
              "type": "uint256"
            },
            {
              "internalType": "uint256",
              "name": "mintLimitPerWallet",
              "type": "uint256"
            },
            {
              "internalType": "contract IERC721[]",
              "name": "requiredNFTAddresses",
              "type": "address[]"
            },
            {
              "internalType": "contract IERC20[]",
              "name": "requiredFTAddresses",
              "type": "address[]"
            }
          ],
          "internalType": "struct AppLib.AppConfig",
          "name": "_config",
          "type": "tuple"
        }
      ],
      "name": "initialize",
      "outputs": [],
      "stateMutability": "nonpayable",
      "type": "function"
    },
    {
      "inputs": [
        {
          "internalType": "address",
          "name": "token",
          "type": "address"
        },
        {
          "internalType": "bytes",
          "name": "encodedFunctionSelector",
          "type": "bytes"
        }
      ],
      "name": "redirectForToken",
      "outputs": [],
      "stateMutability": "nonpayable",
      "type": "function"
    },
    {
      "inputs": [
        {
          "internalType": "string",
          "name": "newAllowListURL",
          "type": "string"
        }
      ],
      "name": "setSAllowListURL",
      "outputs": [],
      "stateMutability": "nonpayable",
      "type": "function"
    },
    {
      "inputs": [
        {
          "internalType": "string",
          "name": "newPreviewURL",
          "type": "string"
        }
      ],
      "name": "setSClaimingPreviewImageURL",
      "outputs": [],
      "stateMutability": "nonpayable",
      "type": "function"
    },
    {
      "inputs": [
        {
          "internalType": "address",
          "name": "newNFTTreasury",
          "type": "address"
        }
      ],
      "name": "setSNFTTreasury",
      "outputs": [],
      "stateMutability": "nonpayable",
      "type": "function"
    },
    {
      "inputs": [
        {
          "internalType": "address",
          "name": "newOwner",
          "type": "address"
        }
      ],
      "name": "setSOwner",
      "outputs": [],
      "stateMutability": "nonpayable",
      "type": "function"
    },
    {
      "inputs": [
        {
          "internalType": "address",
          "name": "newPaymentModule",
          "type": "address"
        }
      ],
      "name": "setSPaymentModule",
      "outputs": [],
      "stateMutability": "nonpayable",
      "type": "function"
    },
    {
      "inputs": [
        {
          "internalType": "address",
          "name": "newRevenueAccount",
          "type": "address"
        }
      ],
      "name": "setSRevenueAccount",
      "outputs": [],
      "stateMutability": "nonpayable",
      "type": "function"
    },
    {
      "inputs": [
        {
          "internalType": "address[]",
          "name": "newValidationGates",
          "type": "address[]"
        }
      ],
      "name": "setSValidationGates",
      "outputs": [],
      "stateMutability": "nonpayable",
      "type": "function"
    },
    {
      "inputs": [
        {
          "internalType": "address",
          "name": "token",
          "type": "address"
        },
        {
          "internalType": "address",
          "name": "from",
          "type": "address"
        },
        {
          "internalType": "address",
          "name": "to",
          "type": "address"
        },
        {
          "internalType": "uint256",
          "name": "amount",
          "type": "uint256"
        }
      ],
      "name": "transferFrom",
      "outputs": [
        {
          "internalType": "int64",
          "name": "responseCode",
          "type": "int64"
        }
      ],
      "stateMutability": "nonpayable",
      "type": "function"
    },
    {
      "inputs": [
        {
          "internalType": "address",
          "name": "token",
          "type": "address"
        },
        {
          "internalType": "address",
          "name": "from",
          "type": "address"
        },
        {
          "internalType": "address",
          "name": "to",
          "type": "address"
        },
        {
          "internalType": "uint256",
          "name": "serialNumber",
          "type": "uint256"
        }
      ],
      "name": "transferFromNFT",
      "outputs": [
        {
          "internalType": "int64",
          "name": "responseCode",
          "type": "int64"
        }
      ],
      "stateMutability": "nonpayable",
      "type": "function"
    },
    {
      "inputs": [
        {
          "internalType": "address",
          "name": "wallet",
          "type": "address"
        }
      ],
      "name": "getConfigMintLimitUsedForWallet",
      "outputs": [
        {
          "internalType": "uint256",
          "name": "",
          "type": "uint256"
        }
      ],
      "stateMutability": "view",
      "type": "function"
    }
  ],
  "bytecode": "0x608060405234801561001057600080fd5b50600980546001600160a01b0319163317905561298b806100326000396000f3fe6080604052600436106101b75760003560e01c80638497564a116100ec578063ac19b2b01161008a578063d64b1c4311610064578063d64b1c43146106d3578063e6295363146106f1578063e88a643914610711578063fa30965b14610724576101b7565b8063ac19b2b01461067e578063bf2cb94a14610693578063d37eb91b146106b3576101b7565b806397ff050c116100c657806397ff050c146106035780639b23d3d914610621578063a463e1eb14610641578063a9260ebb14610661576101b7565b80638497564a14610553578063889a728f14610573578063972fdd26146105c3576101b7565b8063597b3b03116101595780636ae815ba116101335780636ae815ba146104ce5780636eb224cb146104f35780637df4730e1461051357806383b7db6314610531576101b7565b8063597b3b03146104565780635f303dce14610488578063618dc65e146104ae576101b7565b80634134b8b0116101955780634134b8b0146103df57806341cb279c146103ff5780634e71d92d146104215780635029c23414610436576101b7565b806315dacbea14610355578063358ffe7b1461038d57806335cdedb4146103bd575b60006101fd600080368080601f01602080910402602001604051908101604052809392919081815260200183838082843760009201919091525092939250506107479050565b9050600061022a826001600160e01b0319166000908152602081905260409020546001600160a01b031690565b90506001600160a01b0381166102965760405162461bcd60e51b815260206004820152602660248201527f46756e6374696f6e20696d706c656d656e746174696f6e20646f6573206e6f7460448201526508195e1a5cdd60d21b60648201526084015b60405180910390fd5b600080826001600160a01b03166000366040516102b4929190611db8565b600060405180830381855af49150503d80600081146102ef576040519150601f19603f3d011682016040523d82523d6000602084013e6102f4565b606091505b5091509150816103465760405162461bcd60e51b815260206004820152601660248201527f4661696c20647572696e672070726f78792063616c6c00000000000000000000604482015260640161028d565b61034f81610786565b50505050005b34801561036157600080fd5b50610375610370366004611ded565b61078e565b60405160079190910b81526020015b60405180910390f35b34801561039957600080fd5b50600654600160401b900467ffffffffffffffff165b604051908152602001610384565b3480156103c957600080fd5b506103dd6103d8366004611e3e565b610882565b005b3480156103eb57600080fd5b506103dd6103fa366004611e62565b6108d0565b34801561040b57600080fd5b506104146108e1565b6040516103849190611f33565b34801561042d57600080fd5b506103dd610976565b34801561044257600080fd5b506103dd610451366004611f46565b6109e1565b34801561046257600080fd5b50600a546001600160a01b03165b6040516001600160a01b039091168152602001610384565b34801561049457600080fd5b50600654600160801b900467ffffffffffffffff166103af565b3480156104ba57600080fd5b506103dd6104c93660046120a0565b610a19565b3480156104da57600080fd5b50600e546901000000000000000000900460070b610375565b3480156104ff57600080fd5b506103dd61050e36600461211c565b610b07565b34801561051f57600080fd5b506010546001600160a01b0316610470565b34801561053d57600080fd5b50610546610b69565b6040516103849190612197565b34801561055f57600080fd5b5061041461056e366004611e3e565b610cc5565b34801561057f57600080fd5b506103dd61058e366004611e3e565b601380546001600160a01b039092166101000274ffffffffffffffffffffffffffffffffffffffff0019909216919091179055565b3480156105cf57600080fd5b506104706105de3660046121aa565b6001600160e01b0319166000908152602081905260409020546001600160a01b031690565b34801561060f57600080fd5b506009546001600160a01b0316610470565b34801561062d57600080fd5b5061037561063c366004611ded565b610d3c565b34801561064d57600080fd5b506103dd61065c366004611e3e565b610d81565b34801561066d57600080fd5b50600e54610100900460070b610375565b34801561068a57600080fd5b50610414610dcf565b34801561069f57600080fd5b506103dd6106ae366004611e3e565b610de1565b3480156106bf57600080fd5b506103dd6106ce366004611f46565b610e2f565b3480156106df57600080fd5b50600b546001600160a01b0316610470565b3480156106fd57600080fd5b506103dd61070c3660046122ab565b610e67565b6103dd61071f36600461248b565b6111e9565b34801561073057600080fd5b5060085460ff166040519015158152602001610384565b6000610754826004612576565b8351101561076157600080fd5b61076c602083612576565b838101519092506001600160e01b03191690505b92915050565b805160208201f35b6040516001600160a01b038581166024830152848116604483015283166064820152608481018290526000908190819061016790630aed65f560e11b9060a4015b60408051601f198184030181529181526020820180516001600160e01b03166001600160e01b031990941693909317909252905161080d919061258e565b6000604051808303816000865af19150503d806000811461084a576040519150601f19603f3d011682016040523d82523d6000602084013e61084f565b606091505b509150915081610860576015610874565b8080602001905181019061087491906125aa565b60030b979650505050505050565b6009546001600160a01b03163381146108ad5760405162461bcd60e51b815260040161028d906125cd565b50600b80546001600160a01b0319166001600160a01b0392909216919091179055565b6108dc60128383611c03565b505050565b6060600960030180546108f39061261a565b80601f016020809104026020016040519081016040528092919081815260200182805461091f9061261a565b801561096c5780601f106109415761010080835404028352916020019161096c565b820191906000526020600020905b81548152906001019060200180831161094f57829003601f168201915b5050505050905090565b6009546001600160a01b03163381146109a15760405162461bcd60e51b815260040161028d906125cd565b506009600101546040516001600160a01b03909116904780156108fc02916000818181858888f193505050501580156109de573d6000803e3d6000fd5b50565b6009546001600160a01b0316338114610a0c5760405162461bcd60e51b815260040161028d906125cd565b506108dc600d8383611c66565b6000806101676001600160a01b031663618dc65e60e01b8585604051602401610a43929190612655565b60408051601f198184030181529181526020820180516001600160e01b03166001600160e01b0319909416939093179092529051610a81919061258e565b6000604051808303816000865af19150503d8060008114610abe576040519150601f19603f3d011682016040523d82523d6000602084013e610ac3565b606091505b50915091507f4af4780e06fe8cb9df64b0794fa6f01399af979175bb988e35e0e57e594567bc8282604051610af992919061267f565b60405180910390a150505050565b6009546001600160a01b0316338114610b325760405162461bcd60e51b815260040161028d906125cd565b506001600160e01b03198216600090815260208190526040902080546001600160a01b0319166001600160a01b0383161790555050565b606060006009800154610b7d906002612576565b905060008167ffffffffffffffff811115610b9a57610b9a611fa6565b604051908082528060200260200182016040528015610bc3578160200160208202803683370190505b50905060005b601254811015610c41576012805482908110610be757610be761269a565b9060005260206000200160009054906101000a90046001600160a01b0316828281518110610c1757610c1761269a565b6001600160a01b039092166020928302919091019091015280610c39816126b0565b915050610bc9565b600f546001600160a01b03168282610c58816126b0565b935081518110610c6a57610c6a61269a565b6001600160a01b0392831660209182029290920101526013546101009004168282610c94816126b0565b935081518110610ca657610ca661269a565b6001600160a01b03909216602092830291909101909101525092915050565b6060816001600160a01b0316633f2ca3106040518163ffffffff1660e01b815260040160006040518083038186803b158015610d0057600080fd5b505afa158015610d14573d6000803e3d6000fd5b505050506040513d6000823e601f3d908101601f1916820160405261078091908101906126cb565b6040516001600160a01b038581166024830152848116604483015283166064820152608481018290526000908190819061016790639b23d3d960e01b9060a4016107cf565b6009546001600160a01b0316338114610dac5760405162461bcd60e51b815260040161028d906125cd565b50600980546001600160a01b0319166001600160a01b0392909216919091179055565b6060600960040180546108f39061261a565b6009546001600160a01b0316338114610e0c5760405162461bcd60e51b815260040161028d906125cd565b50600a80546001600160a01b0319166001600160a01b0392909216919091179055565b6009546001600160a01b0316338114610e5a5760405162461bcd60e51b815260040161028d906125cd565b506108dc600c8383611c66565b6009546001600160a01b0316338114610e925760405162461bcd60e51b815260040161028d906125cd565b5060085460ff1615610ee65760405162461bcd60e51b815260206004820152601860248201527f436c61696d696e6720616c726561647920737461727465640000000000000000604482015260640161028d565b8051600980546001600160a01b03199081166001600160a01b03938416178255602080850151600a805484169186169190911790556040850151600b80549093169416939093179055606083015180518493610f4792600c92910190611cda565b5060808201518051610f63916004840191602090910190611cda565b5060a082015160058201805460c085015160e086015168ffffffffffffffffff1990921693151568ffffffffffffffff0019169390931761010067ffffffffffffffff94851681029190911770ffffffffffffffff0000000000000000001916690100000000000000000094909216939093021790558201516006820180546001600160a01b03199081166001600160a01b039384161790915561012084015160078401805490921692169190911790556101408201516008820155610160820151805161103b916009840191602090910190611d4e565b50610180820151600a820180546101a08501516001600160a01b03166101000274ffffffffffffffffffffffffffffffffffffffff00199315159390931674ffffffffffffffffffffffffffffffffffffffffff19909116179190911790556101c0820151600b8201556101e0820151600c820155610200820151600d82015561022082015180516110d791600e840191602090910190611d4e565b5061024082015180516110f491600f840191602090910190611d4e565b50506006805467ffffffffffffffff191690555060c081015160e082015160009161111e91612742565b60070b12156111955760405162461bcd60e51b815260206004820152603760248201527f5f636f6e6669672e656e6453657269616c4e756d626572202d205f636f6e666960448201527f672e737461727453657269616c4e756d626572203e2030000000000000000000606482015260840161028d565b60c081015160e08201516111aa906001612794565b6111b49190612742565b6006805467ffffffffffffffff92909216600160401b026fffffffffffffffff00000000000000001990921691909117905550565b60125460005b818110156113975760008060098001838154811061120f5761120f61269a565b6000918252602090912001546040516001600160a01b0390911690631cae3cbd60e31b906112419088906024016127e5565b60408051601f198184030181529181526020820180516001600160e01b03166001600160e01b031990941693909317909252905161127f919061258e565b600060405180830381855af49150503d80600081146112ba576040519150601f19603f3d011682016040523d82523d6000602084013e6112bf565b606091505b5091509150816113225760405162461bcd60e51b815260206004820152602860248201527f412076616c69646174696f6e20776173206e6f74207375636365737366756c6c6044820152671e4818d85b1b195960c21b606482015260840161028d565b80806020019051810190611336919061284a565b6113825760405162461bcd60e51b815260206004820152601f60248201527f412076616c69646174696f6e20776173206e6f74207375636365737366756c00604482015260640161028d565b5050808061138f906126b0565b9150506111ef565b506113a18261189b565b6040805160018082528183019092526000916020808301908036833701905050905060008060096006015460408051600481526024810182526020810180516001600160e01b03166365930fb760e01b17905290516001600160a01b039092169161140c919061258e565b600060405180830381855af49150503d8060008114611447576040519150601f19603f3d011682016040523d82523d6000602084013e61144c565b606091505b5091509150816114c45760405162461bcd60e51b815260206004820152603a60248201527f41204953657269616c4e756d62657247656e657261746f724d6f64756c65207760448201527f6173206e6f74207375636365737366756c6c792063616c6c6564000000000000606482015260840161028d565b808060200190518101906114d89190612867565b836000815181106114eb576114eb61269a565b60079290920b6020928302919091019091015260065461151d90600160801b900467ffffffffffffffff166001612884565b600680547fffffffffffffffff0000000000000000ffffffffffffffffffffffffffffffff16600160801b67ffffffffffffffff93841602179081905561156e91600191600160401b9004166128b0565b6006805467ffffffffffffffff92909216600160401b026fffffffffffffffff0000000000000000199092169190911790556115aa338461199f565b5060005b8481101561170b576000806009800183815481106115ce576115ce61269a565b6000918252602090912001546040516001600160a01b039091169063dc65efa160e01b90611600908b906024016127e5565b60408051601f198184030181529181526020820180516001600160e01b03166001600160e01b031990941693909317909252905161163e919061258e565b600060405180830381855af49150503d8060008114611679576040519150601f19603f3d011682016040523d82523d6000602084013e61167e565b606091505b5091509150816116f65760405162461bcd60e51b815260206004820152603260248201527f4120686f6f6b4166746572446973747269627574656420776173206e6f74207360448201527f75636365737366756c6c792063616c6c65640000000000000000000000000000606482015260840161028d565b50508080611703906126b0565b9150506115ae565b5060008060096006015485516001600160a01b039091169063511a7dfd60e11b90879060009061173d5761173d61269a565b602002602001015160405160240161175e919060079190910b815260200190565b60408051601f198184030181529181526020820180516001600160e01b03166001600160e01b031990941693909317909252905161179c919061258e565b600060405180830381855af49150503d80600081146117d7576040519150601f19603f3d011682016040523d82523d6000602084013e6117dc565b606091505b50915091508161187a5760405162461bcd60e51b815260206004820152604f60248201527f41204953657269616c4e756d62657247656e657261746f724d6f64756c652e6860448201527f6f6f6b4166746572446973747269627574656420776173206e6f74207375636360648201527f65737366756c6c792063616c6c65640000000000000000000000000000000000608482015260a40161028d565b60085460ff16611892576008805460ff191660011790555b50505050505050565b60135460ff166118a85750565b60135461010090046001600160a01b03166118c257600080fd5b6000806009600a01546040516101009091046001600160a01b03169063808598bf60e01b906118f59086906024016127e5565b60408051601f198184030181529181526020820180516001600160e01b03166001600160e01b0319909416939093179092529051611933919061258e565b600060405180830381855af49150503d806000811461196e576040519150601f19603f3d011682016040523d82523d6000602084013e611973565b606091505b50915091508161198257600080fd5b80806020019051810190611996919061284a565b6108dc57600080fd5b600e5460009060ff166119bd576119b683836119eb565b9050610780565b6119b683836000815181106119d4576119d461269a565b602002602001015167ffffffffffffffff16611b46565b604080516001808252818301909252600091829190602080830190803683370190505090503081600081518110611a2457611a2461269a565b6001600160a01b0392909216602092830291909101909101526040805160018082528183019092526000918160200160208202803683370190505090508481600081518110611a7557611a7561269a565b6001600160a01b039283166020918202929092010152601054600091611a9e9116848488611bd3565b90507f90a5cf4cffe88b4edbb041cfc7a8a812c48a5ec30b84640fb37690875168e3aa81604051611ad191815260200190565b60405180910390a160168114611b3a576040517f526573706f6e736520636f6465207761733a200000000000000000000000000060208201526033810182905260530160408051601f198184030181529082905262461bcd60e51b825261028d91600401611f33565b50600195945050505050565b60006009600701546001600160a01b03166323b872dd60096002015460405160e083901b6001600160e01b03191681526001600160a01b039182166004820152908616602482015260448101859052606401600060405180830381600087803b158015611bb257600080fd5b505af1158015611bc6573d6000803e3d6000fd5b5060019695505050505050565b60008060006101676001600160a01b0316632c4ba19160e01b888888886040516024016107cf94939291906128d9565b828054828255906000526020600020908101928215611c56579160200282015b82811115611c565781546001600160a01b0319166001600160a01b03843516178255602090920191600190910190611c23565b50611c62929150611da3565b5090565b828054611c729061261a565b90600052602060002090601f016020900481019282611c945760008555611c56565b82601f10611cad5782800160ff19823516178555611c56565b82800160010185558215611c56579182015b82811115611c56578235825591602001919060010190611cbf565b828054611ce69061261a565b90600052602060002090601f016020900481019282611d085760008555611c56565b82601f10611d2157805160ff1916838001178555611c56565b82800160010185558215611c56579182015b82811115611c56578251825591602001919060010190611d33565b828054828255906000526020600020908101928215611c56579160200282015b82811115611c5657825182546001600160a01b0319166001600160a01b03909116178255602090920191600190910190611d6e565b5b80821115611c625760008155600101611da4565b8183823760009101908152919050565b6001600160a01b03811681146109de57600080fd5b8035611de881611dc8565b919050565b60008060008060808587031215611e0357600080fd5b8435611e0e81611dc8565b93506020850135611e1e81611dc8565b92506040850135611e2e81611dc8565b9396929550929360600135925050565b600060208284031215611e5057600080fd5b8135611e5b81611dc8565b9392505050565b60008060208385031215611e7557600080fd5b823567ffffffffffffffff80821115611e8d57600080fd5b818501915085601f830112611ea157600080fd5b813581811115611eb057600080fd5b8660208260051b8501011115611ec557600080fd5b60209290920196919550909350505050565b60005b83811015611ef2578181015183820152602001611eda565b83811115611f01576000848401525b50505050565b60008151808452611f1f816020860160208601611ed7565b601f01601f19169290920160200192915050565b602081526000611e5b6020830184611f07565b60008060208385031215611f5957600080fd5b823567ffffffffffffffff80821115611f7157600080fd5b818501915085601f830112611f8557600080fd5b813581811115611f9457600080fd5b866020828501011115611ec557600080fd5b634e487b7160e01b600052604160045260246000fd5b604051610260810167ffffffffffffffff81118282101715611fe057611fe0611fa6565b60405290565b6040805190810167ffffffffffffffff81118282101715611fe057611fe0611fa6565b604051601f8201601f1916810167ffffffffffffffff8111828210171561203257612032611fa6565b604052919050565b600067ffffffffffffffff82111561205457612054611fa6565b50601f01601f191660200190565b60006120756120708461203a565b612009565b905082815283838301111561208957600080fd5b828260208301376000602084830101529392505050565b600080604083850312156120b357600080fd5b82356120be81611dc8565b9150602083013567ffffffffffffffff8111156120da57600080fd5b8301601f810185136120eb57600080fd5b6120fa85823560208401612062565b9150509250929050565b80356001600160e01b031981168114611de857600080fd5b6000806040838503121561212f57600080fd5b61213883612104565b9150602083013561214881611dc8565b809150509250929050565b600081518084526020808501945080840160005b8381101561218c5781516001600160a01b031687529582019590820190600101612167565b509495945050505050565b602081526000611e5b6020830184612153565b6000602082840312156121bc57600080fd5b611e5b82612104565b600082601f8301126121d657600080fd5b611e5b83833560208501612062565b80151581146109de57600080fd5b8035611de8816121e5565b8060070b81146109de57600080fd5b8035611de8816121fe565b600067ffffffffffffffff82111561223257612232611fa6565b5060051b60200190565b600082601f83011261224d57600080fd5b8135602061225d61207083612218565b82815260059290921b8401810191818101908684111561227c57600080fd5b8286015b848110156122a057803561229381611dc8565b8352918301918301612280565b509695505050505050565b6000602082840312156122bd57600080fd5b813567ffffffffffffffff808211156122d557600080fd5b9083019061026082860312156122ea57600080fd5b6122f2611fbc565b6122fb83611ddd565b815261230960208401611ddd565b602082015261231a60408401611ddd565b604082015260608301358281111561233157600080fd5b61233d878286016121c5565b60608301525060808301358281111561235557600080fd5b612361878286016121c5565b60808301525061237360a084016121f3565b60a082015261238460c0840161220d565b60c082015261239560e0840161220d565b60e08201526101006123a8818501611ddd565b908201526101206123ba848201611ddd565b90820152610140838101359082015261016080840135838111156123dd57600080fd5b6123e98882870161223c565b8284015250506101806123fd8185016121f3565b908201526101a061240f848201611ddd565b908201526101c083810135908201526101e080840135908201526102008084013590820152610220808401358381111561244857600080fd5b6124548882870161223c565b828401525050610240808401358381111561246e57600080fd5b61247a8882870161223c565b918301919091525095945050505050565b6000602080838503121561249e57600080fd5b823567ffffffffffffffff808211156124b657600080fd5b90840190604082870312156124ca57600080fd5b6124d2611fe6565b8235828111156124e157600080fd5b83019150601f820187136124f457600080fd5b813561250261207082612218565b81815260059190911b8301850190858101908983111561252157600080fd5b938601935b8285101561253f57843582529386019390860190612526565b83525061254f9050838501611ddd565b848201528094505050505092915050565b634e487b7160e01b600052601160045260246000fd5b6000821982111561258957612589612560565b500190565b600082516125a0818460208701611ed7565b9190910192915050565b6000602082840312156125bc57600080fd5b81518060030b8114611e5b57600080fd5b6020808252602d908201527f53656e646572206973206e6f74207065726d697474656420746f2063616c6c2060408201526c3a3434b990333ab731ba34b7b760991b606082015260800190565b600181811c9082168061262e57607f821691505b6020821081141561264f57634e487b7160e01b600052602260045260246000fd5b50919050565b6001600160a01b03831681526040602082015260006126776040830184611f07565b949350505050565b82151581526040602082015260006126776040830184611f07565b634e487b7160e01b600052603260045260246000fd5b60006000198214156126c4576126c4612560565b5060010190565b6000602082840312156126dd57600080fd5b815167ffffffffffffffff8111156126f457600080fd5b8201601f8101841361270557600080fd5b80516127136120708261203a565b81815285602083850101111561272857600080fd5b612739826020830160208601611ed7565b95945050505050565b60008160070b8360070b6000811281677fffffffffffffff190183128115161561276e5761276e612560565b81677fffffffffffffff01831381161561278a5761278a612560565b5090039392505050565b60008160070b8360070b6000821282677fffffffffffffff038213811516156127bf576127bf612560565b82677fffffffffffffff190382128116156127dc576127dc612560565b50019392505050565b6020808252825160408383015280516060840181905260009291820190839060808601905b8083101561282a578351825292840192600192909201919084019061280a565b506001600160a01b03848801511660408701528094505050505092915050565b60006020828403121561285c57600080fd5b8151611e5b816121e5565b60006020828403121561287957600080fd5b8151611e5b816121fe565b600067ffffffffffffffff8083168185168083038211156128a7576128a7612560565b01949350505050565b600067ffffffffffffffff838116908316818110156128d1576128d1612560565b039392505050565b6001600160a01b0385168152600060206080818401526128fc6080840187612153565b838103604085015261290e8187612153565b8481036060860152855180825283870192509083019060005b8181101561294657835160070b83529284019291840191600101612927565b5090999850505050505050505056fea2646970667358221220290352f915ac1b93a9f9d4c40e440f1d870583fb1ea40927676a930bb6ffc4bb64736f6c63430008090033",
  "linkReferences": {},
  "deployedLinkReferences": {}
}