{
  "_format": "hh-sol-artifact-1",
  "contractName": "FTGateContract",
  "sourceName": "contracts/gates/FTGateContract.sol",
  "abi": [
    {
      "inputs": [],
      "name": "getRequiredFTAddresses",
      "outputs": [
        {
          "internalType": "contract IERC20[]",
          "name": "",
          "type": "address[]"
        }
      ],
      "stateMutability": "view",
      "type": "function"
    },
    {
      "inputs": [
        {
          "internalType": "contract IERC20",
          "name": "ft",
          "type": "address"
        }
      ],
      "name": "getRequiredFTBalance",
      "outputs": [
        {
          "internalType": "uint256",
          "name": "",
          "type": "uint256"
        }
      ],
      "stateMutability": "view",
      "type": "function"
    },
    {
      "inputs": [
        {
          "components": [
            {
              "internalType": "bytes32[]",
              "name": "merkleProof",
              "type": "bytes32[]"
            },
            {
              "internalType": "contract IERC20",
              "name": "paymentToken",
              "type": "address"
            }
          ],
          "internalType": "struct GetNFTParams",
          "name": "params",
          "type": "tuple"
        }
      ],
      "name": "hookAfterDistributed",
      "outputs": [],
      "stateMutability": "payable",
      "type": "function"
    },
    {
      "inputs": [
        {
          "internalType": "contract IERC20",
          "name": "ft",
          "type": "address"
        },
        {
          "internalType": "uint256",
          "name": "balance",
          "type": "uint256"
        }
      ],
      "name": "setRequiredFTBalance",
      "outputs": [],
      "stateMutability": "nonpayable",
      "type": "function"
    },
    {
      "inputs": [
        {
          "components": [
            {
              "internalType": "bytes32[]",
              "name": "merkleProof",
              "type": "bytes32[]"
            },
            {
              "internalType": "contract IERC20",
              "name": "paymentToken",
              "type": "address"
            }
          ],
          "internalType": "struct GetNFTParams",
          "name": "params",
          "type": "tuple"
        }
      ],
      "name": "validate",
      "outputs": [
        {
          "internalType": "bool",
          "name": "result",
          "type": "bool"
        }
      ],
      "stateMutability": "payable",
      "type": "function"
    }
  ],
  "bytecode": "0x608060405234801561001057600080fd5b5061052e806100206000396000f3fe60806040526004361061004a5760003560e01c80633a5659e31461004f578063654fd26014610098578063a374b047146100ba578063dc65efa1146100dc578063e571e5e8146100ed575b600080fd5b34801561005b57600080fd5b5061008561006a3660046102b3565b6001600160a01b031660009081526003602052604090205490565b6040519081526020015b60405180910390f35b3480156100a457600080fd5b506100ad610110565b60405161008f91906102d5565b3480156100c657600080fd5b506100da6100d5366004610322565b610175565b005b6100da6100ea3660046103bc565b50565b6101006100fb3660046103bc565b6101aa565b604051901515815260200161008f565b60606008600e0180548060200260200160405190810160405280929190818152602001828054801561016b57602002820191906000526020600020905b81546001600160a01b0316815260019091019060200180831161014d575b5050505050905090565b6008546001600160a01b031633811461018d57600080fd5b506001600160a01b03909116600090815260036020526040902055565b601654600090815b8181101561028d5760006008600e0182815481106101d2576101d26104a0565b6000918252602080832091909101546001600160a01b031680835260039091526040918290205491516370a0823160e01b815233600482015290925082906370a082319060240160206040518083038186803b15801561023157600080fd5b505afa158015610245573d6000803e3d6000fd5b505050506040513d601f19601f8201168201806040525081019061026991906104b6565b101561027a57506000949350505050565b5080610285816104cf565b9150506101b2565b5060019392505050565b80356001600160a01b03811681146102ae57600080fd5b919050565b6000602082840312156102c557600080fd5b6102ce82610297565b9392505050565b6020808252825182820181905260009190848201906040850190845b818110156103165783516001600160a01b0316835292840192918401916001016102f1565b50909695505050505050565b6000806040838503121561033557600080fd5b61033e83610297565b946020939093013593505050565b634e487b7160e01b600052604160045260246000fd5b6040805190810167ffffffffffffffff811182821017156103855761038561034c565b60405290565b604051601f8201601f1916810167ffffffffffffffff811182821017156103b4576103b461034c565b604052919050565b600060208083850312156103cf57600080fd5b823567ffffffffffffffff808211156103e757600080fd5b90840190604082870312156103fb57600080fd5b610403610362565b82358281111561041257600080fd5b8301601f8101881361042357600080fd5b8035838111156104355761043561034c565b8060051b935061044686850161038b565b818152938201860193868101908a86111561046057600080fd5b928701925b8584101561047e57833582529287019290870190610465565b84525061048f915050838501610297565b848201528094505050505092915050565b634e487b7160e01b600052603260045260246000fd5b6000602082840312156104c857600080fd5b5051919050565b60006000198214156104f157634e487b7160e01b600052601160045260246000fd5b506001019056fea2646970667358221220f6fda415b960e317baa92da60e18cd060d2a51a26548279b7af58be67e86b9e264736f6c63430008090033",
  "linkReferences": {},
  "deployedLinkReferences": {}
}