{
  "_format": "hh-sol-artifact-1",
  "contractName": "AllowListGateContract",
  "sourceName": "contracts/gates/AllowListContract.sol",
  "abi": [
    {
      "inputs": [
        {
          "components": [
            {
              "internalType": "bytes32[]",
              "name": "merkleProof",
              "type": "bytes32[]"
            },
            {
              "internalType": "contract IERC20",
              "name": "paymentToken",
              "type": "address"
            }
          ],
          "internalType": "struct GetNFTParams",
          "name": "params",
          "type": "tuple"
        }
      ],
      "name": "hookAfterDistributed",
      "outputs": [],
      "stateMutability": "payable",
      "type": "function"
    },
    {
      "inputs": [
        {
          "components": [
            {
              "internalType": "bytes32[]",
              "name": "merkleProof",
              "type": "bytes32[]"
            },
            {
              "internalType": "contract IERC20",
              "name": "paymentToken",
              "type": "address"
            }
          ],
          "internalType": "struct GetNFTParams",
          "name": "params",
          "type": "tuple"
        }
      ],
      "name": "validate",
      "outputs": [
        {
          "internalType": "bool",
          "name": "result",
          "type": "bool"
        }
      ],
      "stateMutability": "payable",
      "type": "function"
    }
  ],
  "bytecode": "0x608060405234801561001057600080fd5b50610345806100206000396000f3fe6080604052600436106100295760003560e01c8063dc65efa11461002e578063e571e5e814610041575b600080fd5b61003f61003c3660046101ec565b50565b005b61005461004f3660046101ec565b610068565b604051901515815260200160405180910390f35b6040516bffffffffffffffffffffffff193360601b16602082015260009081906034016040516020818303038152906040528051906020012090506100bd83600001516100b3600890565b60070154836100c4565b9392505050565b6000826100d185846100da565b14949350505050565b600081815b845181101561011f5761010b828683815181106100fe576100fe6102d0565b6020026020010151610127565b915080610117816102e6565b9150506100df565b509392505050565b60008183106101435760008281526020849052604090206100bd565b5060009182526020526040902090565b634e487b7160e01b600052604160045260246000fd5b6040805190810167ffffffffffffffff8111828210171561018c5761018c610153565b60405290565b604051601f8201601f1916810167ffffffffffffffff811182821017156101bb576101bb610153565b604052919050565b803573ffffffffffffffffffffffffffffffffffffffff811681146101e757600080fd5b919050565b600060208083850312156101ff57600080fd5b823567ffffffffffffffff8082111561021757600080fd5b908401906040828703121561022b57600080fd5b610233610169565b82358281111561024257600080fd5b8301601f8101881361025357600080fd5b80358381111561026557610265610153565b8060051b9350610276868501610192565b818152938201860193868101908a86111561029057600080fd5b928701925b858410156102ae57833582529287019290870190610295565b8452506102bf9150508385016101c3565b848201528094505050505092915050565b634e487b7160e01b600052603260045260246000fd5b600060001982141561030857634e487b7160e01b600052601160045260246000fd5b506001019056fea2646970667358221220136c22c8ca8632c506a73af21344cfc978c0962f2ff93ba9e125bab5cac56e1764736f6c63430008090033",
  "linkReferences": {},
  "deployedLinkReferences": {}
}