{
  "_format": "hh-sol-artifact-1",
  "contractName": "StartTimestampGateContract",
  "sourceName": "contracts/gates/StartTimestampGate.sol",
  "abi": [
    {
      "inputs": [],
      "name": "getConfigStartTimestamp",
      "outputs": [
        {
          "internalType": "uint256",
          "name": "",
          "type": "uint256"
        }
      ],
      "stateMutability": "view",
      "type": "function"
    },
    {
      "inputs": [
        {
          "components": [
            {
              "internalType": "bytes32[]",
              "name": "merkleProof",
              "type": "bytes32[]"
            },
            {
              "internalType": "contract IERC20",
              "name": "paymentToken",
              "type": "address"
            }
          ],
          "internalType": "struct GetNFTParams",
          "name": "params",
          "type": "tuple"
        }
      ],
      "name": "hookAfterDistributed",
      "outputs": [],
      "stateMutability": "payable",
      "type": "function"
    },
    {
      "inputs": [
        {
          "internalType": "uint256",
          "name": "newTimestamp",
          "type": "uint256"
        }
      ],
      "name": "setConfigStartTimestamp",
      "outputs": [],
      "stateMutability": "nonpayable",
      "type": "function"
    },
    {
      "inputs": [
        {
          "components": [
            {
              "internalType": "bytes32[]",
              "name": "merkleProof",
              "type": "bytes32[]"
            },
            {
              "internalType": "contract IERC20",
              "name": "paymentToken",
              "type": "address"
            }
          ],
          "internalType": "struct GetNFTParams",
          "name": "params",
          "type": "tuple"
        }
      ],
      "name": "validate",
      "outputs": [
        {
          "internalType": "bool",
          "name": "result",
          "type": "bool"
        }
      ],
      "stateMutability": "payable",
      "type": "function"
    }
  ],
  "bytecode": "0x608060405234801561001057600080fd5b506102d1806100206000396000f3fe60806040526004361061003f5760003560e01c8063b34f7f6b14610044578063c95c99eb14610067578063dc65efa114610089578063e571e5e81461009a575b600080fd5b34801561005057600080fd5b506012546040519081526020015b60405180910390f35b34801561007357600080fd5b50610087610082366004610105565b6100bd565b005b6100876100973660046101b7565b50565b6100ad6100a83660046101b7565b6100e8565b604051901515815260200161005e565b60085473ffffffffffffffffffffffffffffffffffffffff163381146100e257600080fd5b50601255565b6012546000904210156100fd57506000919050565b506001919050565b60006020828403121561011757600080fd5b5035919050565b634e487b7160e01b600052604160045260246000fd5b6040805190810167ffffffffffffffff811182821017156101575761015761011e565b60405290565b604051601f8201601f1916810167ffffffffffffffff811182821017156101865761018661011e565b604052919050565b803573ffffffffffffffffffffffffffffffffffffffff811681146101b257600080fd5b919050565b600060208083850312156101ca57600080fd5b823567ffffffffffffffff808211156101e257600080fd5b90840190604082870312156101f657600080fd5b6101fe610134565b82358281111561020d57600080fd5b8301601f8101881361021e57600080fd5b8035838111156102305761023061011e565b8060051b935061024186850161015d565b818152938201860193868101908a86111561025b57600080fd5b928701925b8584101561027957833582529287019290870190610260565b84525061028a91505083850161018e565b84820152809450505050509291505056fea2646970667358221220e8ce54f02b77b38a3225f22062d7af424f7e3ffcf03b2313b1fe597167ba4df564736f6c63430008090033",
  "linkReferences": {},
  "deployedLinkReferences": {}
}