{
  "_format": "hh-sol-artifact-1",
  "contractName": "RandomSerialNumberGeneratorContract",
  "sourceName": "contracts/modules/RandomSerialNumberGeneratorContract.sol",
  "abi": [
    {
      "inputs": [],
      "name": "generateSerialNumber",
      "outputs": [
        {
          "internalType": "int64",
          "name": "serialNumber",
          "type": "int64"
        }
      ],
      "stateMutability": "payable",
      "type": "function"
    },
    {
      "inputs": [],
      "name": "getLastMintedSerialNumber",
      "outputs": [
        {
          "internalType": "int64",
          "name": "serialNumber",
          "type": "int64"
        }
      ],
      "stateMutability": "view",
      "type": "function"
    },
    {
      "inputs": [
        {
          "internalType": "int64",
          "name": "serialNumber",
          "type": "int64"
        }
      ],
      "name": "hookAfterDistributed",
      "outputs": [],
      "stateMutability": "payable",
      "type": "function"
    }
  ],
  "bytecode": "0x608060405234801561001057600080fd5b506104a4806100206000396000f3fe6080604052600436106100345760003560e01c80633a3aeb6a1461003957806365930fb714610064578063a234fbfa1461006c575b600080fd5b34801561004557600080fd5b5060065460070b5b60405160079190910b815260200160405180910390f35b61004d61009a565b61009861007a366004610326565b60070b6000908152600560205260409020805460ff19166001179055565b005b60006100a46100a9565b905090565b60065460009068010000000000000000900467ffffffffffffffff166101165760405162461bcd60e51b815260206004820152601960248201527f416c6c204e46547320776572652064697374726962757465640000000000000060448201526064015b60405180910390fd5b6000610120610200565b600c5463ffffffff919091169150600090610100900460070b5b600c5469010000000000000000009004600790810b9082900b12156101b757600781900b60009081526005602052604090205460ff16610182578161017e81610366565b9250505b8267ffffffffffffffff168267ffffffffffffffff1614156101a5579392505050565b806101af8161038e565b91505061013a565b5060405162461bcd60e51b815260206004820152601460248201527f536f6d657468696e672077656e742077726f6e67000000000000000000000000604482015260640161010d565b60065460009060016801000000000000000090910467ffffffffffffffff161161022a5750600190565b6000610234610277565b60065490915061025c9060019068010000000000000000900467ffffffffffffffff166103b5565b61026690826103da565b61027190600161040b565b91505090565b60408051600481526024810182526020810180517bffffffffffffffffffffffffffffffffffffffffffffffffffffffff1663d83bf9a160e01b179052905160009182918291610169916102cb9190610433565b6000604051808303816000865af19150503d8060008114610308576040519150601f19603f3d011682016040523d82523d6000602084013e61030d565b606091505b50915091508161031c57600080fd5b6020015192915050565b60006020828403121561033857600080fd5b81358060070b811461034957600080fd5b9392505050565b634e487b7160e01b600052601160045260246000fd5b600067ffffffffffffffff8083168181141561038457610384610350565b6001019392505050565b60008160070b677fffffffffffffff8114156103ac576103ac610350565b60010192915050565b600063ffffffff838116908316818110156103d2576103d2610350565b039392505050565b600063ffffffff808416806103ff57634e487b7160e01b600052601260045260246000fd5b92169190910692915050565b600063ffffffff80831681851680830382111561042a5761042a610350565b01949350505050565b6000825160005b81811015610454576020818601810151858301520161043a565b81811115610463576000828501525b50919091019291505056fea2646970667358221220e4ed2f70f8e00067c1028e35df628cefbe091b615cf524fdce4d1870cf24b59464736f6c63430008090033",
  "linkReferences": {},
  "deployedLinkReferences": {}
}