{
  "_format": "hh-sol-artifact-1",
  "contractName": "NFTGateContract",
  "sourceName": "contracts/gates/NFTGateContract.sol",
  "abi": [
    {
      "inputs": [],
      "name": "getRequiredNFTAddresses",
      "outputs": [
        {
          "internalType": "contract IERC721[]",
          "name": "",
          "type": "address[]"
        }
      ],
      "stateMutability": "view",
      "type": "function"
    },
    {
      "inputs": [
        {
          "internalType": "contract IERC721",
          "name": "nft",
          "type": "address"
        }
      ],
      "name": "getRequiredNFTBalance",
      "outputs": [
        {
          "internalType": "uint256",
          "name": "",
          "type": "uint256"
        }
      ],
      "stateMutability": "view",
      "type": "function"
    },
    {
      "inputs": [
        {
          "components": [
            {
              "internalType": "bytes32[]",
              "name": "merkleProof",
              "type": "bytes32[]"
            },
            {
              "internalType": "contract IERC20",
              "name": "paymentToken",
              "type": "address"
            }
          ],
          "internalType": "struct GetNFTParams",
          "name": "params",
          "type": "tuple"
        }
      ],
      "name": "hookAfterDistributed",
      "outputs": [],
      "stateMutability": "payable",
      "type": "function"
    },
    {
      "inputs": [
        {
          "internalType": "contract IERC721",
          "name": "nft",
          "type": "address"
        },
        {
          "internalType": "uint256",
          "name": "balance",
          "type": "uint256"
        }
      ],
      "name": "setRequiredNFTBalance",
      "outputs": [],
      "stateMutability": "nonpayable",
      "type": "function"
    },
    {
      "inputs": [
        {
          "components": [
            {
              "internalType": "bytes32[]",
              "name": "merkleProof",
              "type": "bytes32[]"
            },
            {
              "internalType": "contract IERC20",
              "name": "paymentToken",
              "type": "address"
            }
          ],
          "internalType": "struct GetNFTParams",
          "name": "params",
          "type": "tuple"
        }
      ],
      "name": "validate",
      "outputs": [
        {
          "internalType": "bool",
          "name": "result",
          "type": "bool"
        }
      ],
      "stateMutability": "payable",
      "type": "function"
    }
  ],
  "bytecode": "0x608060405234801561001057600080fd5b5061053f806100206000396000f3fe60806040526004361061004a5760003560e01c806311f21eb21461004f5780637aa90fa9146100715780637bbf55e71461009c578063dc65efa1146100e0578063e571e5e8146100f1575b600080fd5b34801561005b57600080fd5b5061006f61006a3660046102b0565b610114565b005b34801561007d57600080fd5b50610086610149565b60405161009391906102dc565b60405180910390f35b3480156100a857600080fd5b506100d26100b7366004610329565b6001600160a01b031660009081526002602052604090205490565b604051908152602001610093565b61006f6100ee3660046103cd565b50565b6101046100ff3660046103cd565b6101ae565b6040519015158152602001610093565b6008546001600160a01b031633811461012c57600080fd5b506001600160a01b03909116600090815260026020526040902055565b60606008600d018054806020026020016040519081016040528092919081815260200182805480156101a457602002820191906000526020600020905b81546001600160a01b03168152600190910190602001808311610186575b5050505050905090565b601554600090815b818110156102915760006008600d0182815481106101d6576101d66104b1565b6000918252602080832091909101546001600160a01b031680835260029091526040918290205491516370a0823160e01b815233600482015290925082906370a082319060240160206040518083038186803b15801561023557600080fd5b505afa158015610249573d6000803e3d6000fd5b505050506040513d601f19601f8201168201806040525081019061026d91906104c7565b101561027e57506000949350505050565b5080610289816104e0565b9150506101b6565b5060019392505050565b6001600160a01b03811681146100ee57600080fd5b600080604083850312156102c357600080fd5b82356102ce8161029b565b946020939093013593505050565b6020808252825182820181905260009190848201906040850190845b8181101561031d5783516001600160a01b0316835292840192918401916001016102f8565b50909695505050505050565b60006020828403121561033b57600080fd5b81356103468161029b565b9392505050565b634e487b7160e01b600052604160045260246000fd5b6040805190810167ffffffffffffffff811182821017156103865761038661034d565b60405290565b604051601f8201601f1916810167ffffffffffffffff811182821017156103b5576103b561034d565b604052919050565b80356103c88161029b565b919050565b600060208083850312156103e057600080fd5b823567ffffffffffffffff808211156103f857600080fd5b908401906040828703121561040c57600080fd5b610414610363565b82358281111561042357600080fd5b8301601f8101881361043457600080fd5b8035838111156104465761044661034d565b8060051b935061045786850161038c565b818152938201860193868101908a86111561047157600080fd5b928701925b8584101561048f57833582529287019290870190610476565b8452506104a09150508385016103bd565b848201528094505050505092915050565b634e487b7160e01b600052603260045260246000fd5b6000602082840312156104d957600080fd5b5051919050565b600060001982141561050257634e487b7160e01b600052601160045260246000fd5b506001019056fea2646970667358221220fce2cb0fcdecc4a23f060f4121f22f7cbab9214ed1060b925578d3bf556e756b64736f6c63430008090033",
  "linkReferences": {},
  "deployedLinkReferences": {}
}