{
  "_format": "hh-sol-artifact-1",
  "contractName": "MintLimitGateContract",
  "sourceName": "contracts/gates/MintLimitGate.sol",
  "abi": [
    {
      "inputs": [],
      "name": "EXTENSION_NAME",
      "outputs": [
        {
          "internalType": "string",
          "name": "",
          "type": "string"
        }
      ],
      "stateMutability": "view",
      "type": "function"
    },
    {
      "inputs": [],
      "name": "getConfigMintLimitPerWallet",
      "outputs": [
        {
          "internalType": "uint256",
          "name": "",
          "type": "uint256"
        }
      ],
      "stateMutability": "view",
      "type": "function"
    },
    {
      "inputs": [
        {
          "internalType": "address",
          "name": "wallet",
          "type": "address"
        }
      ],
      "name": "getConfigMintLimitUsedForWallet",
      "outputs": [
        {
          "internalType": "uint256",
          "name": "",
          "type": "uint256"
        }
      ],
      "stateMutability": "view",
      "type": "function"
    },
    {
      "inputs": [],
      "name": "getExtensionName",
      "outputs": [
        {
          "internalType": "string",
          "name": "",
          "type": "string"
        }
      ],
      "stateMutability": "view",
      "type": "function"
    },
    {
      "inputs": [
        {
          "components": [
            {
              "internalType": "bytes32[]",
              "name": "merkleProof",
              "type": "bytes32[]"
            },
            {
              "internalType": "contract IERC20",
              "name": "paymentToken",
              "type": "address"
            }
          ],
          "internalType": "struct GetNFTParams",
          "name": "params",
          "type": "tuple"
        }
      ],
      "name": "hookAfterDistributed",
      "outputs": [],
      "stateMutability": "payable",
      "type": "function"
    },
    {
      "inputs": [
        {
          "internalType": "uint256",
          "name": "newMintLimitPerWallet",
          "type": "uint256"
        }
      ],
      "name": "setConfigMintLimitPerWallet",
      "outputs": [],
      "stateMutability": "nonpayable",
      "type": "function"
    },
    {
      "inputs": [
        {
          "components": [
            {
              "internalType": "bytes32[]",
              "name": "merkleProof",
              "type": "bytes32[]"
            },
            {
              "internalType": "contract IERC20",
              "name": "paymentToken",
              "type": "address"
            }
          ],
          "internalType": "struct GetNFTParams",
          "name": "params",
          "type": "tuple"
        }
      ],
      "name": "validate",
      "outputs": [
        {
          "internalType": "bool",
          "name": "result",
          "type": "bool"
        }
      ],
      "stateMutability": "payable",
      "type": "function"
    }
  ],
  "bytecode": "0x608060405234801561001057600080fd5b506104e4806100206000396000f3fe6080604052600436106100705760003560e01c80639b4716261161004e5780639b471626146100fc578063c9a0c03a14610137578063dc65efa11461016d578063e571e5e81461018057600080fd5b806303188e8714610075578063226cd893146100995780633f2ca310146100bb575b600080fd5b34801561008157600080fd5b506016545b6040519081526020015b60405180910390f35b3480156100a557600080fd5b506100b96100b436600461027a565b6101a3565b005b3480156100c757600080fd5b5060408051808201909152600f81526e4d494e545f4c494d49545f4741544560881b60208201525b6040516100909190610293565b34801561010857600080fd5b506100ef6040518060400160405280600f81526020016e4d494e545f4c494d49545f4741544560881b81525081565b34801561014357600080fd5b50610086610152366004610300565b6001600160a01b031660009081526001602052604090205490565b6100b961017b3660046103a4565b61021e565b61019361018e3660046103a4565b61024d565b6040519015158152602001610090565b6009546001600160a01b03163381146102185760405162461bcd60e51b815260206004820152602d60248201527f53656e646572206973206e6f74207065726d697474656420746f2063616c6c2060448201526c3a3434b990333ab731ba34b7b760991b606482015260840160405180910390fd5b50601655565b3360009081526001602081905260409091205461023a91610488565b3360009081526001602052604090205550565b60006009600d0154336000908152600160205260409020541061027257506000919050565b506001919050565b60006020828403121561028c57600080fd5b5035919050565b600060208083528351808285015260005b818110156102c0578581018301518582016040015282016102a4565b818111156102d2576000604083870101525b50601f01601f1916929092016040019392505050565b6001600160a01b03811681146102fd57600080fd5b50565b60006020828403121561031257600080fd5b813561031d816102e8565b9392505050565b634e487b7160e01b600052604160045260246000fd5b6040805190810167ffffffffffffffff8111828210171561035d5761035d610324565b60405290565b604051601f8201601f1916810167ffffffffffffffff8111828210171561038c5761038c610324565b604052919050565b803561039f816102e8565b919050565b600060208083850312156103b757600080fd5b823567ffffffffffffffff808211156103cf57600080fd5b90840190604082870312156103e357600080fd5b6103eb61033a565b8235828111156103fa57600080fd5b8301601f8101881361040b57600080fd5b80358381111561041d5761041d610324565b8060051b935061042e868501610363565b818152938201860193868101908a86111561044857600080fd5b928701925b858410156104665783358252928701929087019061044d565b845250610477915050838501610394565b848201528094505050505092915050565b600082198211156104a957634e487b7160e01b600052601160045260246000fd5b50019056fea2646970667358221220586103341fc3132caeda7160c902e372fab0a8ceb19d1006afd4319bbe45b82a64736f6c63430008090033",
  "linkReferences": {},
  "deployedLinkReferences": {}
}